{"contracts/BlockchainSimulation.sol":{"BlockchainSimulation":{"abi":[{"inputs":[],"stateMutability":"nonpayable","type":"constructor"},{"inputs":[{"internalType":"string","name":"_transaction","type":"string"}],"name":"addTransaction","outputs":[],"stateMutability":"nonpayable","type":"function"},{"inputs":[{"internalType":"uint256","name":"","type":"uint256"}],"name":"chain","outputs":[{"internalType":"uint256","name":"index","type":"uint256"},{"internalType":"uint256","name":"timestamp","type":"uint256"},{"internalType":"bytes32","name":"previousHash","type":"bytes32"},{"internalType":"bytes32","name":"hash","type":"bytes32"},{"internalType":"uint256","name":"nonce","type":"uint256"}],"stateMutability":"view","type":"function"},{"inputs":[],"name":"difficulty","outputs":[{"internalType":"uint256","name":"","type":"uint256"}],"stateMutability":"view","type":"function"},{"inputs":[],"name":"getChainLength","outputs":[{"internalType":"uint256","name":"","type":"uint256"}],"stateMutability":"view","type":"function"},{"inputs":[],"name":"mineBlock","outputs":[],"stateMutability":"nonpayable","type":"function"},{"inputs":[],"name":"validateChain","outputs":[{"internalType":"bool","name":"","type":"bool"}],"stateMutability":"view","type":"function"}],"evm":{"bytecode":{"linkReferences":{},"object":"60806040523461034157600260015560408051908181016001600160401b0381118382101761028657815260018252601f19810160005b81811061033057505080518082016001600160401b03811182821017610286578252600c81526b4f726967696e20426c6f636b60a01b602082015261007a83610346565b5261008482610346565b50805160c081016001600160401b038111828210176102865782526000815260208101428152828201938452606082016000815260808301906000825260a0840192600084526000546801000000000000000081101561028657600181018060005581101561031a5760008052600660206000209102019451855551600185015560028401955180519068010000000000000000821161028657875482895580831061029c575b50602001966000526020600020966000905b8282106101695750505090600592915160038501555160048401555191015551610abc90816103a58239f35b80518051906001600160401b038211610286576101868b54610353565b601f8111610249575b50602090601f83116001146101dc5792826001949360209386956000926101d1575b5050600019600383901b1c191690841b178c555b0199019101909761013d565b0151905038806101b1565b90601f198316918c600052816000209260005b8181106102315750936020936001969387969383889510610218575b505050811b018c556101c5565b015160001960f88460031b161c1916905538808061020b565b929360206001819287860151815501950193016101ef565b610276908c6000526020600020601f850160051c8101916020861061027c575b601f0160051c019061038d565b3861018f565b9091508190610269565b634e487b7160e01b600052604160045260246000fd5b8860005282602060002091820191015b8181106102b9575061012b565b806102c660019254610353565b806102d3575b50016102ac565b601f811183146102e95750600081555b386102cc565b610307908260005283601f6020600020920160051c8201910161038d565b80600052600060208120818355556102e3565b634e487b7160e01b600052603260045260246000fd5b806060602080938701015201610036565b600080fd5b80511561031a5760200190565b90600182811c92168015610383575b602083101461036d57565b634e487b7160e01b600052602260045260246000fd5b91607f1691610362565b818110610398575050565b6000815560010161038d56fe608080604052600436101561001357600080fd5b60003560e01c90816319cae4621461060d57508063517715f01461052b5780635852cc0c146104cc57806378a1ff8f146100a95780638f2bab071461008b5763fd778dd91461006157600080fd5b3461008657600036600319011261008657602061007c610924565b6040519015158152f35b600080fd5b34610086576000366003190112610086576020600054604051908152f35b3461008657600036600319011261008657600254156104875760005460001981018181116101dd576100e56100df608092610666565b506107f2565b0151604051906100f482610628565b828252602082014281526002549167ffffffffffffffff83116103b6576040519261012560208260051b0185610644565b808452600260009081527f405787fa12a823e0f2b7631cc41b3ba8828b3321ca811111fa75cd3aa3bb5ace9190602086015b8282106103e25750505050604084019283526060840190815260808401916000835260a08501956000875261018b866109b8565b600154908160021b9180830460041490151715809261010003916101008311915b6101dd57816101dd5780831c156101f35750895160001981146101dd576001018a526101d7896109b8565b836101ac565b634e487b7160e01b600052601160045260246000fd5b8752509597955050600160401b8110156103b6578060016102179201600055610666565b9590956103cc57518555516001850155600284019451805190600160401b82116103b6578654828855808310610338575b50602001956000526020600020956000905b82821061031b578660058787875160038501555160048401555191015560025460006002558061028657005b60026000527f405787fa12a823e0f2b7631cc41b3ba8828b3321ca811111fa75cd3aa3bb5ace908101905b8181106102ba57005b806102c7600192546106a0565b806102d4575b50016102b1565b601f811183146102ea5750600081555b836102cd565b610308908260005283601f6020600020920160051c820191016106da565b80600052600060208120818355556102e4565b600160208261032c8394518c6106f1565b0198019101909661025a565b8760005282602060002091820191015b8181106103555750610248565b80610362600192546106a0565b8061036f575b5001610348565b601f811183146103855750600081555b8a610368565b6103a3908260005283601f6020600020920160051c820191016106da565b806000526000602081208183555561037f565b634e487b7160e01b600052604160045260246000fd5b634e487b7160e01b600052600060045260246000fd5b604051600085546103f2816106a0565b8084529060018116908115610464575060011461042c575b506001928261041e85946020940382610644565b815201940191019092610157565b6000878152602081209092505b81831061044e5750508101602001600161040a565b6001816020925483868801015201920191610439565b60ff191660208581019190915291151560051b840190910191506001905061040a565b60405162461bcd60e51b815260206004820152601760248201527f4e6f207472616e73616374696f6e7320746f206d696e650000000000000000006044820152606490fd5b3461008657602036600319011261008657600435600054811015610086576104f560a091610666565b50805490600181015490600381015460056004830154920154926040519485526020850152604084015260608301526080820152f35b346100865760203660031901126100865760043567ffffffffffffffff8111610086573660238201121561008657806004013567ffffffffffffffff81116103b65760405191610585601f8301601f191660200184610644565b81835236602483830101116100865781600092602460209301838601378301015260025490600160401b8210156103b65760018201806002558210156105f7576105f59160026000527f405787fa12a823e0f2b7631cc41b3ba8828b3321ca811111fa75cd3aa3bb5ace016106f1565b005b634e487b7160e01b600052603260045260246000fd5b34610086576000366003190112610086576020906001548152f35b60c0810190811067ffffffffffffffff8211176103b657604052565b90601f8019910116810190811067ffffffffffffffff8211176103b657604052565b6000548110156105f75760008080526006919091027f290decd9548b62a8d60345a988386fc84ba6bc95484008f6362f93160ef3e5630191565b90600182811c921680156106d0575b60208310146106ba57565b634e487b7160e01b600052602260045260246000fd5b91607f16916106af565b8181106106e5575050565b600081556001016106da565b919091825167ffffffffffffffff81116103b65761070f82546106a0565b601f81116107b5575b506020601f82116001146107535781929394600092610748575b50508160011b916000199060031b1c1916179055565b015190503880610732565b601f1982169083600052806000209160005b81811061079d57509583600195969710610784575b505050811b019055565b015160001960f88460031b161c1916905538808061077a565b9192602060018192868b015181550194019201610765565b6107e290836000526020600020601f840160051c810191602085106107e8575b601f0160051c01906106da565b38610718565b90915081906107d5565b906040516107ff81610628565b809280548252600181015460208301526002810180549067ffffffffffffffff82116103b6576040519161083960208260051b0184610644565b80835260208301916000526020600020916000905b82821061087f575050505060a091600591604085015260038101546060850152600481015460808501520154910152565b6040516000855461088f816106a0565b808452906001811690811561090157506001146108c9575b50600192826108bb85946020940382610644565b81520194019101909261084e565b6000878152602081209092505b8183106108eb575050810160200160016108a7565b60018160209254838688010152019201916108d6565b60ff191660208581019190915291151560051b84019091019150600190506108a7565b60005460015b818110610938575050600190565b6109446100df82610666565b60001982018281116101dd576100df61095c91610666565b608060608301519101510361098d576109796080820151916109b8565b036109865760010161092a565b5050600090565b505050600090565b60005b8381106109a85750506000910152565b8181015183820152602001610998565b90600060605b60408401518051831015610a235790610a1b60206001938560051b01015191602060405193826109f78694518092858088019101610995565b8301610a0b82518093858085019101610995565b010103601f198101835282610644565b9101906109be565b509050919091610a806040606084519460208101519060a083820151910151845196879360208501998a5286850152610a658151809260208888019101610995565b83019184830152608082015203016020810184520182610644565b5190209056fea2646970667358221220647e95938ee7b71a9a537a60ecbe08b86de8047b1064040d7425a19b1fbc3bea64736f6c634300081c0033","opcodes":"PUSH1 0x80 PUSH1 0x40 MSTORE CALLVALUE PUSH2 0x341 JUMPI PUSH1 0x2 PUSH1 0x1 SSTORE PUSH1 0x40 DUP1 MLOAD SWAP1 DUP2 DUP2 ADD PUSH1 0x1 PUSH1 0x1 PUSH1 0x40 SHL SUB DUP2 GT DUP4 DUP3 LT OR PUSH2 0x286 JUMPI DUP2 MSTORE PUSH1 0x1 DUP3 MSTORE PUSH1 0x1F NOT DUP2 ADD PUSH1 0x0 JUMPDEST DUP2 DUP2 LT PUSH2 0x330 JUMPI POP POP DUP1 MLOAD DUP1 DUP3 ADD PUSH1 0x1 PUSH1 0x1 PUSH1 0x40 SHL SUB DUP2 GT DUP3 DUP3 LT OR PUSH2 0x286 JUMPI DUP3 MSTORE PUSH1 0xC DUP2 MSTORE PUSH12 0x4F726967696E20426C6F636B PUSH1 0xA0 SHL PUSH1 0x20 DUP3 ADD MSTORE PUSH2 0x7A DUP4 PUSH2 0x346 JUMP JUMPDEST MSTORE PUSH2 0x84 DUP3 PUSH2 0x346 JUMP JUMPDEST POP DUP1 MLOAD PUSH1 0xC0 DUP2 ADD PUSH1 0x1 PUSH1 0x1 PUSH1 0x40 SHL SUB DUP2 GT DUP3 DUP3 LT OR PUSH2 0x286 JUMPI DUP3 MSTORE PUSH1 0x0 DUP2 MSTORE PUSH1 0x20 DUP2 ADD TIMESTAMP DUP2 MSTORE DUP3 DUP3 ADD SWAP4 DUP5 MSTORE PUSH1 0x60 DUP3 ADD PUSH1 0x0 DUP2 MSTORE PUSH1 0x80 DUP4 ADD SWAP1 PUSH1 0x0 DUP3 MSTORE PUSH1 0xA0 DUP5 ADD SWAP3 PUSH1 0x0 DUP5 MSTORE PUSH1 0x0 SLOAD PUSH9 0x10000000000000000 DUP2 LT ISZERO PUSH2 0x286 JUMPI PUSH1 0x1 DUP2 ADD DUP1 PUSH1 0x0 SSTORE DUP2 LT ISZERO PUSH2 0x31A JUMPI PUSH1 0x0 DUP1 MSTORE PUSH1 0x6 PUSH1 0x20 PUSH1 0x0 KECCAK256 SWAP2 MUL ADD SWAP5 MLOAD DUP6 SSTORE MLOAD PUSH1 0x1 DUP6 ADD SSTORE PUSH1 0x2 DUP5 ADD SWAP6 MLOAD DUP1 MLOAD SWAP1 PUSH9 0x10000000000000000 DUP3 GT PUSH2 0x286 JUMPI DUP8 SLOAD DUP3 DUP10 SSTORE DUP1 DUP4 LT PUSH2 0x29C JUMPI JUMPDEST POP PUSH1 0x20 ADD SWAP7 PUSH1 0x0 MSTORE PUSH1 0x20 PUSH1 0x0 KECCAK256 SWAP7 PUSH1 0x0 SWAP1 JUMPDEST DUP3 DUP3 LT PUSH2 0x169 JUMPI POP POP POP SWAP1 PUSH1 0x5 SWAP3 SWAP2 MLOAD PUSH1 0x3 DUP6 ADD SSTORE MLOAD PUSH1 0x4 DUP5 ADD SSTORE MLOAD SWAP2 ADD SSTORE MLOAD PUSH2 0xABC SWAP1 DUP2 PUSH2 0x3A5 DUP3 CODECOPY RETURN JUMPDEST DUP1 MLOAD DUP1 MLOAD SWAP1 PUSH1 0x1 PUSH1 0x1 PUSH1 0x40 SHL SUB DUP3 GT PUSH2 0x286 JUMPI PUSH2 0x186 DUP12 SLOAD PUSH2 0x353 JUMP JUMPDEST PUSH1 0x1F DUP2 GT PUSH2 0x249 JUMPI JUMPDEST POP PUSH1 0x20 SWAP1 PUSH1 0x1F DUP4 GT PUSH1 0x1 EQ PUSH2 0x1DC JUMPI SWAP3 DUP3 PUSH1 0x1 SWAP5 SWAP4 PUSH1 0x20 SWAP4 DUP7 SWAP6 PUSH1 0x0 SWAP3 PUSH2 0x1D1 JUMPI JUMPDEST POP POP PUSH1 0x0 NOT PUSH1 0x3 DUP4 SWAP1 SHL SHR NOT AND SWAP1 DUP5 SHL OR DUP13 SSTORE JUMPDEST ADD SWAP10 ADD SWAP2 ADD SWAP1 SWAP8 PUSH2 0x13D JUMP JUMPDEST ADD MLOAD SWAP1 POP CODESIZE DUP1 PUSH2 0x1B1 JUMP JUMPDEST SWAP1 PUSH1 0x1F NOT DUP4 AND SWAP2 DUP13 PUSH1 0x0 MSTORE DUP2 PUSH1 0x0 KECCAK256 SWAP3 PUSH1 0x0 JUMPDEST DUP2 DUP2 LT PUSH2 0x231 JUMPI POP SWAP4 PUSH1 0x20 SWAP4 PUSH1 0x1 SWAP7 SWAP4 DUP8 SWAP7 SWAP4 DUP4 DUP9 SWAP6 LT PUSH2 0x218 JUMPI JUMPDEST POP POP POP DUP2 SHL ADD DUP13 SSTORE PUSH2 0x1C5 JUMP JUMPDEST ADD MLOAD PUSH1 0x0 NOT PUSH1 0xF8 DUP5 PUSH1 0x3 SHL AND SHR NOT AND SWAP1 SSTORE CODESIZE DUP1 DUP1 PUSH2 0x20B JUMP JUMPDEST SWAP3 SWAP4 PUSH1 0x20 PUSH1 0x1 DUP2 SWAP3 DUP8 DUP7 ADD MLOAD DUP2 SSTORE ADD SWAP6 ADD SWAP4 ADD PUSH2 0x1EF JUMP JUMPDEST PUSH2 0x276 SWAP1 DUP13 PUSH1 0x0 MSTORE PUSH1 0x20 PUSH1 0x0 KECCAK256 PUSH1 0x1F DUP6 ADD PUSH1 0x5 SHR DUP2 ADD SWAP2 PUSH1 0x20 DUP7 LT PUSH2 0x27C JUMPI JUMPDEST PUSH1 0x1F ADD PUSH1 0x5 SHR ADD SWAP1 PUSH2 0x38D JUMP JUMPDEST CODESIZE PUSH2 0x18F JUMP JUMPDEST SWAP1 SWAP2 POP DUP2 SWAP1 PUSH2 0x269 JUMP JUMPDEST PUSH4 0x4E487B71 PUSH1 0xE0 SHL PUSH1 0x0 MSTORE PUSH1 0x41 PUSH1 0x4 MSTORE PUSH1 0x24 PUSH1 0x0 REVERT JUMPDEST DUP9 PUSH1 0x0 MSTORE DUP3 PUSH1 0x20 PUSH1 0x0 KECCAK256 SWAP2 DUP3 ADD SWAP2 ADD JUMPDEST DUP2 DUP2 LT PUSH2 0x2B9 JUMPI POP PUSH2 0x12B JUMP JUMPDEST DUP1 PUSH2 0x2C6 PUSH1 0x1 SWAP3 SLOAD PUSH2 0x353 JUMP JUMPDEST DUP1 PUSH2 0x2D3 JUMPI JUMPDEST POP ADD PUSH2 0x2AC JUMP JUMPDEST PUSH1 0x1F DUP2 GT DUP4 EQ PUSH2 0x2E9 JUMPI POP PUSH1 0x0 DUP2 SSTORE JUMPDEST CODESIZE PUSH2 0x2CC JUMP JUMPDEST PUSH2 0x307 SWAP1 DUP3 PUSH1 0x0 MSTORE DUP4 PUSH1 0x1F PUSH1 0x20 PUSH1 0x0 KECCAK256 SWAP3 ADD PUSH1 0x5 SHR DUP3 ADD SWAP2 ADD PUSH2 0x38D JUMP JUMPDEST DUP1 PUSH1 0x0 MSTORE PUSH1 0x0 PUSH1 0x20 DUP2 KECCAK256 DUP2 DUP4 SSTORE SSTORE PUSH2 0x2E3 JUMP JUMPDEST PUSH4 0x4E487B71 PUSH1 0xE0 SHL PUSH1 0x0 MSTORE PUSH1 0x32 PUSH1 0x4 MSTORE PUSH1 0x24 PUSH1 0x0 REVERT JUMPDEST DUP1 PUSH1 0x60 PUSH1 0x20 DUP1 SWAP4 DUP8 ADD ADD MSTORE ADD PUSH2 0x36 JUMP JUMPDEST PUSH1 0x0 DUP1 REVERT JUMPDEST DUP1 MLOAD ISZERO PUSH2 0x31A JUMPI PUSH1 0x20 ADD SWAP1 JUMP JUMPDEST SWAP1 PUSH1 0x1 DUP3 DUP2 SHR SWAP3 AND DUP1 ISZERO PUSH2 0x383 JUMPI JUMPDEST PUSH1 0x20 DUP4 LT EQ PUSH2 0x36D JUMPI JUMP JUMPDEST PUSH4 0x4E487B71 PUSH1 0xE0 SHL PUSH1 0x0 MSTORE PUSH1 0x22 PUSH1 0x4 MSTORE PUSH1 0x24 PUSH1 0x0 REVERT JUMPDEST SWAP2 PUSH1 0x7F AND SWAP2 PUSH2 0x362 JUMP JUMPDEST DUP2 DUP2 LT PUSH2 0x398 JUMPI POP POP JUMP JUMPDEST PUSH1 0x0 DUP2 SSTORE PUSH1 0x1 ADD PUSH2 0x38D JUMP INVALID PUSH1 0x80 DUP1 PUSH1 0x40 MSTORE PUSH1 0x4 CALLDATASIZE LT ISZERO PUSH2 0x13 JUMPI PUSH1 0x0 DUP1 REVERT JUMPDEST PUSH1 0x0 CALLDATALOAD PUSH1 0xE0 SHR SWAP1 DUP2 PUSH4 0x19CAE462 EQ PUSH2 0x60D JUMPI POP DUP1 PUSH4 0x517715F0 EQ PUSH2 0x52B JUMPI DUP1 PUSH4 0x5852CC0C EQ PUSH2 0x4CC JUMPI DUP1 PUSH4 0x78A1FF8F EQ PUSH2 0xA9 JUMPI DUP1 PUSH4 0x8F2BAB07 EQ PUSH2 0x8B JUMPI PUSH4 0xFD778DD9 EQ PUSH2 0x61 JUMPI PUSH1 0x0 DUP1 REVERT JUMPDEST CALLVALUE PUSH2 0x86 JUMPI PUSH1 0x0 CALLDATASIZE PUSH1 0x3 NOT ADD SLT PUSH2 0x86 JUMPI PUSH1 0x20 PUSH2 0x7C PUSH2 0x924 JUMP JUMPDEST PUSH1 0x40 MLOAD SWAP1 ISZERO ISZERO DUP2 MSTORE RETURN JUMPDEST PUSH1 0x0 DUP1 REVERT JUMPDEST CALLVALUE PUSH2 0x86 JUMPI PUSH1 0x0 CALLDATASIZE PUSH1 0x3 NOT ADD SLT PUSH2 0x86 JUMPI PUSH1 0x20 PUSH1 0x0 SLOAD PUSH1 0x40 MLOAD SWAP1 DUP2 MSTORE RETURN JUMPDEST CALLVALUE PUSH2 0x86 JUMPI PUSH1 0x0 CALLDATASIZE PUSH1 0x3 NOT ADD SLT PUSH2 0x86 JUMPI PUSH1 0x2 SLOAD ISZERO PUSH2 0x487 JUMPI PUSH1 0x0 SLOAD PUSH1 0x0 NOT DUP2 ADD DUP2 DUP2 GT PUSH2 0x1DD JUMPI PUSH2 0xE5 PUSH2 0xDF PUSH1 0x80 SWAP3 PUSH2 0x666 JUMP JUMPDEST POP PUSH2 0x7F2 JUMP JUMPDEST ADD MLOAD PUSH1 0x40 MLOAD SWAP1 PUSH2 0xF4 DUP3 PUSH2 0x628 JUMP JUMPDEST DUP3 DUP3 MSTORE PUSH1 0x20 DUP3 ADD TIMESTAMP DUP2 MSTORE PUSH1 0x2 SLOAD SWAP2 PUSH8 0xFFFFFFFFFFFFFFFF DUP4 GT PUSH2 0x3B6 JUMPI PUSH1 0x40 MLOAD SWAP3 PUSH2 0x125 PUSH1 0x20 DUP3 PUSH1 0x5 SHL ADD DUP6 PUSH2 0x644 JUMP JUMPDEST DUP1 DUP5 MSTORE PUSH1 0x2 PUSH1 0x0 SWAP1 DUP2 MSTORE PUSH32 0x405787FA12A823E0F2B7631CC41B3BA8828B3321CA811111FA75CD3AA3BB5ACE SWAP2 SWAP1 PUSH1 0x20 DUP7 ADD JUMPDEST DUP3 DUP3 LT PUSH2 0x3E2 JUMPI POP POP POP POP PUSH1 0x40 DUP5 ADD SWAP3 DUP4 MSTORE PUSH1 0x60 DUP5 ADD SWAP1 DUP2 MSTORE PUSH1 0x80 DUP5 ADD SWAP2 PUSH1 0x0 DUP4 MSTORE PUSH1 0xA0 DUP6 ADD SWAP6 PUSH1 0x0 DUP8 MSTORE PUSH2 0x18B DUP7 PUSH2 0x9B8 JUMP JUMPDEST PUSH1 0x1 SLOAD SWAP1 DUP2 PUSH1 0x2 SHL SWAP2 DUP1 DUP4 DIV PUSH1 0x4 EQ SWAP1 ISZERO OR ISZERO DUP1 SWAP3 PUSH2 0x100 SUB SWAP2 PUSH2 0x100 DUP4 GT SWAP2 JUMPDEST PUSH2 0x1DD JUMPI DUP2 PUSH2 0x1DD JUMPI DUP1 DUP4 SHR ISZERO PUSH2 0x1F3 JUMPI POP DUP10 MLOAD PUSH1 0x0 NOT DUP2 EQ PUSH2 0x1DD JUMPI PUSH1 0x1 ADD DUP11 MSTORE PUSH2 0x1D7 DUP10 PUSH2 0x9B8 JUMP JUMPDEST DUP4 PUSH2 0x1AC JUMP JUMPDEST PUSH4 0x4E487B71 PUSH1 0xE0 SHL PUSH1 0x0 MSTORE PUSH1 0x11 PUSH1 0x4 MSTORE PUSH1 0x24 PUSH1 0x0 REVERT JUMPDEST DUP8 MSTORE POP SWAP6 SWAP8 SWAP6 POP POP PUSH1 0x1 PUSH1 0x40 SHL DUP2 LT ISZERO PUSH2 0x3B6 JUMPI DUP1 PUSH1 0x1 PUSH2 0x217 SWAP3 ADD PUSH1 0x0 SSTORE PUSH2 0x666 JUMP JUMPDEST SWAP6 SWAP1 SWAP6 PUSH2 0x3CC JUMPI MLOAD DUP6 SSTORE MLOAD PUSH1 0x1 DUP6 ADD SSTORE PUSH1 0x2 DUP5 ADD SWAP5 MLOAD DUP1 MLOAD SWAP1 PUSH1 0x1 PUSH1 0x40 SHL DUP3 GT PUSH2 0x3B6 JUMPI DUP7 SLOAD DUP3 DUP9 SSTORE DUP1 DUP4 LT PUSH2 0x338 JUMPI JUMPDEST POP PUSH1 0x20 ADD SWAP6 PUSH1 0x0 MSTORE PUSH1 0x20 PUSH1 0x0 KECCAK256 SWAP6 PUSH1 0x0 SWAP1 JUMPDEST DUP3 DUP3 LT PUSH2 0x31B JUMPI DUP7 PUSH1 0x5 DUP8 DUP8 DUP8 MLOAD PUSH1 0x3 DUP6 ADD SSTORE MLOAD PUSH1 0x4 DUP5 ADD SSTORE MLOAD SWAP2 ADD SSTORE PUSH1 0x2 SLOAD PUSH1 0x0 PUSH1 0x2 SSTORE DUP1 PUSH2 0x286 JUMPI STOP JUMPDEST PUSH1 0x2 PUSH1 0x0 MSTORE PUSH32 0x405787FA12A823E0F2B7631CC41B3BA8828B3321CA811111FA75CD3AA3BB5ACE SWAP1 DUP2 ADD SWAP1 JUMPDEST DUP2 DUP2 LT PUSH2 0x2BA JUMPI STOP JUMPDEST DUP1 PUSH2 0x2C7 PUSH1 0x1 SWAP3 SLOAD PUSH2 0x6A0 JUMP JUMPDEST DUP1 PUSH2 0x2D4 JUMPI JUMPDEST POP ADD PUSH2 0x2B1 JUMP JUMPDEST PUSH1 0x1F DUP2 GT DUP4 EQ PUSH2 0x2EA JUMPI POP PUSH1 0x0 DUP2 SSTORE JUMPDEST DUP4 PUSH2 0x2CD JUMP JUMPDEST PUSH2 0x308 SWAP1 DUP3 PUSH1 0x0 MSTORE DUP4 PUSH1 0x1F PUSH1 0x20 PUSH1 0x0 KECCAK256 SWAP3 ADD PUSH1 0x5 SHR DUP3 ADD SWAP2 ADD PUSH2 0x6DA JUMP JUMPDEST DUP1 PUSH1 0x0 MSTORE PUSH1 0x0 PUSH1 0x20 DUP2 KECCAK256 DUP2 DUP4 SSTORE SSTORE PUSH2 0x2E4 JUMP JUMPDEST PUSH1 0x1 PUSH1 0x20 DUP3 PUSH2 0x32C DUP4 SWAP5 MLOAD DUP13 PUSH2 0x6F1 JUMP JUMPDEST ADD SWAP9 ADD SWAP2 ADD SWAP1 SWAP7 PUSH2 0x25A JUMP JUMPDEST DUP8 PUSH1 0x0 MSTORE DUP3 PUSH1 0x20 PUSH1 0x0 KECCAK256 SWAP2 DUP3 ADD SWAP2 ADD JUMPDEST DUP2 DUP2 LT PUSH2 0x355 JUMPI POP PUSH2 0x248 JUMP JUMPDEST DUP1 PUSH2 0x362 PUSH1 0x1 SWAP3 SLOAD PUSH2 0x6A0 JUMP JUMPDEST DUP1 PUSH2 0x36F JUMPI JUMPDEST POP ADD PUSH2 0x348 JUMP JUMPDEST PUSH1 0x1F DUP2 GT DUP4 EQ PUSH2 0x385 JUMPI POP PUSH1 0x0 DUP2 SSTORE JUMPDEST DUP11 PUSH2 0x368 JUMP JUMPDEST PUSH2 0x3A3 SWAP1 DUP3 PUSH1 0x0 MSTORE DUP4 PUSH1 0x1F PUSH1 0x20 PUSH1 0x0 KECCAK256 SWAP3 ADD PUSH1 0x5 SHR DUP3 ADD SWAP2 ADD PUSH2 0x6DA JUMP JUMPDEST DUP1 PUSH1 0x0 MSTORE PUSH1 0x0 PUSH1 0x20 DUP2 KECCAK256 DUP2 DUP4 SSTORE SSTORE PUSH2 0x37F JUMP JUMPDEST PUSH4 0x4E487B71 PUSH1 0xE0 SHL PUSH1 0x0 MSTORE PUSH1 0x41 PUSH1 0x4 MSTORE PUSH1 0x24 PUSH1 0x0 REVERT JUMPDEST PUSH4 0x4E487B71 PUSH1 0xE0 SHL PUSH1 0x0 MSTORE PUSH1 0x0 PUSH1 0x4 MSTORE PUSH1 0x24 PUSH1 0x0 REVERT JUMPDEST PUSH1 0x40 MLOAD PUSH1 0x0 DUP6 SLOAD PUSH2 0x3F2 DUP2 PUSH2 0x6A0 JUMP JUMPDEST DUP1 DUP5 MSTORE SWAP1 PUSH1 0x1 DUP2 AND SWAP1 DUP2 ISZERO PUSH2 0x464 JUMPI POP PUSH1 0x1 EQ PUSH2 0x42C JUMPI JUMPDEST POP PUSH1 0x1 SWAP3 DUP3 PUSH2 0x41E DUP6 SWAP5 PUSH1 0x20 SWAP5 SUB DUP3 PUSH2 0x644 JUMP JUMPDEST DUP2 MSTORE ADD SWAP5 ADD SWAP2 ADD SWAP1 SWAP3 PUSH2 0x157 JUMP JUMPDEST PUSH1 0x0 DUP8 DUP2 MSTORE PUSH1 0x20 DUP2 KECCAK256 SWAP1 SWAP3 POP JUMPDEST DUP2 DUP4 LT PUSH2 0x44E JUMPI POP POP DUP2 ADD PUSH1 0x20 ADD PUSH1 0x1 PUSH2 0x40A JUMP JUMPDEST PUSH1 0x1 DUP2 PUSH1 0x20 SWAP3 SLOAD DUP4 DUP7 DUP9 ADD ADD MSTORE ADD SWAP3 ADD SWAP2 PUSH2 0x439 JUMP JUMPDEST PUSH1 0xFF NOT AND PUSH1 0x20 DUP6 DUP2 ADD SWAP2 SWAP1 SWAP2 MSTORE SWAP2 ISZERO ISZERO PUSH1 0x5 SHL DUP5 ADD SWAP1 SWAP2 ADD SWAP2 POP PUSH1 0x1 SWAP1 POP PUSH2 0x40A JUMP JUMPDEST PUSH1 0x40 MLOAD PUSH3 0x461BCD PUSH1 0xE5 SHL DUP2 MSTORE PUSH1 0x20 PUSH1 0x4 DUP3 ADD MSTORE PUSH1 0x17 PUSH1 0x24 DUP3 ADD MSTORE PUSH32 0x4E6F207472616E73616374696F6E7320746F206D696E65000000000000000000 PUSH1 0x44 DUP3 ADD MSTORE PUSH1 0x64 SWAP1 REVERT JUMPDEST CALLVALUE PUSH2 0x86 JUMPI PUSH1 0x20 CALLDATASIZE PUSH1 0x3 NOT ADD SLT PUSH2 0x86 JUMPI PUSH1 0x4 CALLDATALOAD PUSH1 0x0 SLOAD DUP2 LT ISZERO PUSH2 0x86 JUMPI PUSH2 0x4F5 PUSH1 0xA0 SWAP2 PUSH2 0x666 JUMP JUMPDEST POP DUP1 SLOAD SWAP1 PUSH1 0x1 DUP2 ADD SLOAD SWAP1 PUSH1 0x3 DUP2 ADD SLOAD PUSH1 0x5 PUSH1 0x4 DUP4 ADD SLOAD SWAP3 ADD SLOAD SWAP3 PUSH1 0x40 MLOAD SWAP5 DUP6 MSTORE PUSH1 0x20 DUP6 ADD MSTORE PUSH1 0x40 DUP5 ADD MSTORE PUSH1 0x60 DUP4 ADD MSTORE PUSH1 0x80 DUP3 ADD MSTORE RETURN JUMPDEST CALLVALUE PUSH2 0x86 JUMPI PUSH1 0x20 CALLDATASIZE PUSH1 0x3 NOT ADD SLT PUSH2 0x86 JUMPI PUSH1 0x4 CALLDATALOAD PUSH8 0xFFFFFFFFFFFFFFFF DUP2 GT PUSH2 0x86 JUMPI CALLDATASIZE PUSH1 0x23 DUP3 ADD SLT ISZERO PUSH2 0x86 JUMPI DUP1 PUSH1 0x4 ADD CALLDATALOAD PUSH8 0xFFFFFFFFFFFFFFFF DUP2 GT PUSH2 0x3B6 JUMPI PUSH1 0x40 MLOAD SWAP2 PUSH2 0x585 PUSH1 0x1F DUP4 ADD PUSH1 0x1F NOT AND PUSH1 0x20 ADD DUP5 PUSH2 0x644 JUMP JUMPDEST DUP2 DUP4 MSTORE CALLDATASIZE PUSH1 0x24 DUP4 DUP4 ADD ADD GT PUSH2 0x86 JUMPI DUP2 PUSH1 0x0 SWAP3 PUSH1 0x24 PUSH1 0x20 SWAP4 ADD DUP4 DUP7 ADD CALLDATACOPY DUP4 ADD ADD MSTORE PUSH1 0x2 SLOAD SWAP1 PUSH1 0x1 PUSH1 0x40 SHL DUP3 LT ISZERO PUSH2 0x3B6 JUMPI PUSH1 0x1 DUP3 ADD DUP1 PUSH1 0x2 SSTORE DUP3 LT ISZERO PUSH2 0x5F7 JUMPI PUSH2 0x5F5 SWAP2 PUSH1 0x2 PUSH1 0x0 MSTORE PUSH32 0x405787FA12A823E0F2B7631CC41B3BA8828B3321CA811111FA75CD3AA3BB5ACE ADD PUSH2 0x6F1 JUMP JUMPDEST STOP JUMPDEST PUSH4 0x4E487B71 PUSH1 0xE0 SHL PUSH1 0x0 MSTORE PUSH1 0x32 PUSH1 0x4 MSTORE PUSH1 0x24 PUSH1 0x0 REVERT JUMPDEST CALLVALUE PUSH2 0x86 JUMPI PUSH1 0x0 CALLDATASIZE PUSH1 0x3 NOT ADD SLT PUSH2 0x86 JUMPI PUSH1 0x20 SWAP1 PUSH1 0x1 SLOAD DUP2 MSTORE RETURN JUMPDEST PUSH1 0xC0 DUP2 ADD SWAP1 DUP2 LT PUSH8 0xFFFFFFFFFFFFFFFF DUP3 GT OR PUSH2 0x3B6 JUMPI PUSH1 0x40 MSTORE JUMP JUMPDEST SWAP1 PUSH1 0x1F DUP1 NOT SWAP2 ADD AND DUP2 ADD SWAP1 DUP2 LT PUSH8 0xFFFFFFFFFFFFFFFF DUP3 GT OR PUSH2 0x3B6 JUMPI PUSH1 0x40 MSTORE JUMP JUMPDEST PUSH1 0x0 SLOAD DUP2 LT ISZERO PUSH2 0x5F7 JUMPI PUSH1 0x0 DUP1 DUP1 MSTORE PUSH1 0x6 SWAP2 SWAP1 SWAP2 MUL PUSH32 0x290DECD9548B62A8D60345A988386FC84BA6BC95484008F6362F93160EF3E563 ADD SWAP2 JUMP JUMPDEST SWAP1 PUSH1 0x1 DUP3 DUP2 SHR SWAP3 AND DUP1 ISZERO PUSH2 0x6D0 JUMPI JUMPDEST PUSH1 0x20 DUP4 LT EQ PUSH2 0x6BA JUMPI JUMP JUMPDEST PUSH4 0x4E487B71 PUSH1 0xE0 SHL PUSH1 0x0 MSTORE PUSH1 0x22 PUSH1 0x4 MSTORE PUSH1 0x24 PUSH1 0x0 REVERT JUMPDEST SWAP2 PUSH1 0x7F AND SWAP2 PUSH2 0x6AF JUMP JUMPDEST DUP2 DUP2 LT PUSH2 0x6E5 JUMPI POP POP JUMP JUMPDEST PUSH1 0x0 DUP2 SSTORE PUSH1 0x1 ADD PUSH2 0x6DA JUMP JUMPDEST SWAP2 SWAP1 SWAP2 DUP3 MLOAD PUSH8 0xFFFFFFFFFFFFFFFF DUP2 GT PUSH2 0x3B6 JUMPI PUSH2 0x70F DUP3 SLOAD PUSH2 0x6A0 JUMP JUMPDEST PUSH1 0x1F DUP2 GT PUSH2 0x7B5 JUMPI JUMPDEST POP PUSH1 0x20 PUSH1 0x1F DUP3 GT PUSH1 0x1 EQ PUSH2 0x753 JUMPI DUP2 SWAP3 SWAP4 SWAP5 PUSH1 0x0 SWAP3 PUSH2 0x748 JUMPI JUMPDEST POP POP DUP2 PUSH1 0x1 SHL SWAP2 PUSH1 0x0 NOT SWAP1 PUSH1 0x3 SHL SHR NOT AND OR SWAP1 SSTORE JUMP JUMPDEST ADD MLOAD SWAP1 POP CODESIZE DUP1 PUSH2 0x732 JUMP JUMPDEST PUSH1 0x1F NOT DUP3 AND SWAP1 DUP4 PUSH1 0x0 MSTORE DUP1 PUSH1 0x0 KECCAK256 SWAP2 PUSH1 0x0 JUMPDEST DUP2 DUP2 LT PUSH2 0x79D JUMPI POP SWAP6 DUP4 PUSH1 0x1 SWAP6 SWAP7 SWAP8 LT PUSH2 0x784 JUMPI JUMPDEST POP POP POP DUP2 SHL ADD SWAP1 SSTORE JUMP JUMPDEST ADD MLOAD PUSH1 0x0 NOT PUSH1 0xF8 DUP5 PUSH1 0x3 SHL AND SHR NOT AND SWAP1 SSTORE CODESIZE DUP1 DUP1 PUSH2 0x77A JUMP JUMPDEST SWAP2 SWAP3 PUSH1 0x20 PUSH1 0x1 DUP2 SWAP3 DUP7 DUP12 ADD MLOAD DUP2 SSTORE ADD SWAP5 ADD SWAP3 ADD PUSH2 0x765 JUMP JUMPDEST PUSH2 0x7E2 SWAP1 DUP4 PUSH1 0x0 MSTORE PUSH1 0x20 PUSH1 0x0 KECCAK256 PUSH1 0x1F DUP5 ADD PUSH1 0x5 SHR DUP2 ADD SWAP2 PUSH1 0x20 DUP6 LT PUSH2 0x7E8 JUMPI JUMPDEST PUSH1 0x1F ADD PUSH1 0x5 SHR ADD SWAP1 PUSH2 0x6DA JUMP JUMPDEST CODESIZE PUSH2 0x718 JUMP JUMPDEST SWAP1 SWAP2 POP DUP2 SWAP1 PUSH2 0x7D5 JUMP JUMPDEST SWAP1 PUSH1 0x40 MLOAD PUSH2 0x7FF DUP2 PUSH2 0x628 JUMP JUMPDEST DUP1 SWAP3 DUP1 SLOAD DUP3 MSTORE PUSH1 0x1 DUP2 ADD SLOAD PUSH1 0x20 DUP4 ADD MSTORE PUSH1 0x2 DUP2 ADD DUP1 SLOAD SWAP1 PUSH8 0xFFFFFFFFFFFFFFFF DUP3 GT PUSH2 0x3B6 JUMPI PUSH1 0x40 MLOAD SWAP2 PUSH2 0x839 PUSH1 0x20 DUP3 PUSH1 0x5 SHL ADD DUP5 PUSH2 0x644 JUMP JUMPDEST DUP1 DUP4 MSTORE PUSH1 0x20 DUP4 ADD SWAP2 PUSH1 0x0 MSTORE PUSH1 0x20 PUSH1 0x0 KECCAK256 SWAP2 PUSH1 0x0 SWAP1 JUMPDEST DUP3 DUP3 LT PUSH2 0x87F JUMPI POP POP POP POP PUSH1 0xA0 SWAP2 PUSH1 0x5 SWAP2 PUSH1 0x40 DUP6 ADD MSTORE PUSH1 0x3 DUP2 ADD SLOAD PUSH1 0x60 DUP6 ADD MSTORE PUSH1 0x4 DUP2 ADD SLOAD PUSH1 0x80 DUP6 ADD MSTORE ADD SLOAD SWAP2 ADD MSTORE JUMP JUMPDEST PUSH1 0x40 MLOAD PUSH1 0x0 DUP6 SLOAD PUSH2 0x88F DUP2 PUSH2 0x6A0 JUMP JUMPDEST DUP1 DUP5 MSTORE SWAP1 PUSH1 0x1 DUP2 AND SWAP1 DUP2 ISZERO PUSH2 0x901 JUMPI POP PUSH1 0x1 EQ PUSH2 0x8C9 JUMPI JUMPDEST POP PUSH1 0x1 SWAP3 DUP3 PUSH2 0x8BB DUP6 SWAP5 PUSH1 0x20 SWAP5 SUB DUP3 PUSH2 0x644 JUMP JUMPDEST DUP2 MSTORE ADD SWAP5 ADD SWAP2 ADD SWAP1 SWAP3 PUSH2 0x84E JUMP JUMPDEST PUSH1 0x0 DUP8 DUP2 MSTORE PUSH1 0x20 DUP2 KECCAK256 SWAP1 SWAP3 POP JUMPDEST DUP2 DUP4 LT PUSH2 0x8EB JUMPI POP POP DUP2 ADD PUSH1 0x20 ADD PUSH1 0x1 PUSH2 0x8A7 JUMP JUMPDEST PUSH1 0x1 DUP2 PUSH1 0x20 SWAP3 SLOAD DUP4 DUP7 DUP9 ADD ADD MSTORE ADD SWAP3 ADD SWAP2 PUSH2 0x8D6 JUMP JUMPDEST PUSH1 0xFF NOT AND PUSH1 0x20 DUP6 DUP2 ADD SWAP2 SWAP1 SWAP2 MSTORE SWAP2 ISZERO ISZERO PUSH1 0x5 SHL DUP5 ADD SWAP1 SWAP2 ADD SWAP2 POP PUSH1 0x1 SWAP1 POP PUSH2 0x8A7 JUMP JUMPDEST PUSH1 0x0 SLOAD PUSH1 0x1 JUMPDEST DUP2 DUP2 LT PUSH2 0x938 JUMPI POP POP PUSH1 0x1 SWAP1 JUMP JUMPDEST PUSH2 0x944 PUSH2 0xDF DUP3 PUSH2 0x666 JUMP JUMPDEST PUSH1 0x0 NOT DUP3 ADD DUP3 DUP2 GT PUSH2 0x1DD JUMPI PUSH2 0xDF PUSH2 0x95C SWAP2 PUSH2 0x666 JUMP JUMPDEST PUSH1 0x80 PUSH1 0x60 DUP4 ADD MLOAD SWAP2 ADD MLOAD SUB PUSH2 0x98D JUMPI PUSH2 0x979 PUSH1 0x80 DUP3 ADD MLOAD SWAP2 PUSH2 0x9B8 JUMP JUMPDEST SUB PUSH2 0x986 JUMPI PUSH1 0x1 ADD PUSH2 0x92A JUMP JUMPDEST POP POP PUSH1 0x0 SWAP1 JUMP JUMPDEST POP POP POP PUSH1 0x0 SWAP1 JUMP JUMPDEST PUSH1 0x0 JUMPDEST DUP4 DUP2 LT PUSH2 0x9A8 JUMPI POP POP PUSH1 0x0 SWAP2 ADD MSTORE JUMP JUMPDEST DUP2 DUP2 ADD MLOAD DUP4 DUP3 ADD MSTORE PUSH1 0x20 ADD PUSH2 0x998 JUMP JUMPDEST SWAP1 PUSH1 0x0 PUSH1 0x60 JUMPDEST PUSH1 0x40 DUP5 ADD MLOAD DUP1 MLOAD DUP4 LT ISZERO PUSH2 0xA23 JUMPI SWAP1 PUSH2 0xA1B PUSH1 0x20 PUSH1 0x1 SWAP4 DUP6 PUSH1 0x5 SHL ADD ADD MLOAD SWAP2 PUSH1 0x20 PUSH1 0x40 MLOAD SWAP4 DUP3 PUSH2 0x9F7 DUP7 SWAP5 MLOAD DUP1 SWAP3 DUP6 DUP1 DUP9 ADD SWAP2 ADD PUSH2 0x995 JUMP JUMPDEST DUP4 ADD PUSH2 0xA0B DUP3 MLOAD DUP1 SWAP4 DUP6 DUP1 DUP6 ADD SWAP2 ADD PUSH2 0x995 JUMP JUMPDEST ADD ADD SUB PUSH1 0x1F NOT DUP2 ADD DUP4 MSTORE DUP3 PUSH2 0x644 JUMP JUMPDEST SWAP2 ADD SWAP1 PUSH2 0x9BE JUMP JUMPDEST POP SWAP1 POP SWAP2 SWAP1 SWAP2 PUSH2 0xA80 PUSH1 0x40 PUSH1 0x60 DUP5 MLOAD SWAP5 PUSH1 0x20 DUP2 ADD MLOAD SWAP1 PUSH1 0xA0 DUP4 DUP3 ADD MLOAD SWAP2 ADD MLOAD DUP5 MLOAD SWAP7 DUP8 SWAP4 PUSH1 0x20 DUP6 ADD SWAP10 DUP11 MSTORE DUP7 DUP6 ADD MSTORE PUSH2 0xA65 DUP2 MLOAD DUP1 SWAP3 PUSH1 0x20 DUP9 DUP9 ADD SWAP2 ADD PUSH2 0x995 JUMP JUMPDEST DUP4 ADD SWAP2 DUP5 DUP4 ADD MSTORE PUSH1 0x80 DUP3 ADD MSTORE SUB ADD PUSH1 0x20 DUP2 ADD DUP5 MSTORE ADD DUP3 PUSH2 0x644 JUMP JUMPDEST MLOAD SWAP1 KECCAK256 SWAP1 JUMP INVALID LOG2 PUSH5 0x6970667358 0x22 SLT KECCAK256 PUSH5 0x7E95938EE7 0xB7 BYTE SWAP11 MSTORE8 PUSH27 0x60ECBE08B86DE8047B1064040D7425A19B1FBC3BEA64736F6C6343 STOP ADDMOD SHR STOP CALLER "},"methodIdentifiers":{"addTransaction(string)":"517715f0","chain(uint256)":"5852cc0c","difficulty()":"19cae462","getChainLength()":"8f2bab07","mineBlock()":"78a1ff8f","validateChain()":"fd778dd9"}}}}}